:100000000C9462000C948A000C948A000C948A0070
:100010000C948A000C948A000C948A000C948A0038
:100020000C948A000C948A000C948A000C946A093F
:100030000C948A000C948A000C948A000C948A0018
:100040000C9401080C948A000C94CF070C94A90717
:100050000C948A000C948A000C948A000C948A00F8
:100060000C944B080C948A00000000002400270028
:100070002A0000000000250028002B0000000000DE
:1000800023002600290004040404040404040202DA
:100090000202020203030303030301020408102007
:1000A0004080010204081020010204081020000012
:1000B0000008000201000003040700000000000027
:1000C0000000260A11241FBECFEFD8E0DEBFCDBF4F
:1000D00011E0A0E0B1E0E2E7FBE102C005900D9283
:1000E000AC3EB107D9F723E0ACEEB1E001C01D9200
:1000F000AA3AB207E1F710E0C2E6D0E004C02197C7
:10010000FE010E94AC0DC136D107C9F70E94D00A8A
:100110000C94B70D0C9400008F929F92AF92BF92F7
:10012000FF920F931F93CF93DF93F0908E032BE0FA
:100130002F1508F44CC02091900308E512E0021B33
:10014000110927FD1395000F111F000F111F20919A
:100150008F03C8E8D0E0C21BD10927FDD395CC0F8F
:10016000DD1FCC0FDD1F4E010D2E000CAA08BB08B1
:100170009801012E000C440B550B281939094A0926
:100180005B09DC010E94670D24EB30E040E050E0A9
:100190000E943D0D820E931EA41EB51E8C169D0658
:1001A0002CF0E801801691060CF4E4012297CC0FA4
:1001B000DD1F2FB7F8948F2D90E0FC01EE0FFF1F8D
:1001C000E80FF91FE759FC4FD283C1832FBFDF919E
:1001D000CF911F910F91FF90BF90AF909F908F9004
:1001E0000895AF92BF92CF92DF92EF92FF920F935A
:1001F0001F93CF93DF936C017B018B01040F151FBD
:10020000EB015E01AE18BF08C017D10759F0699124
:10021000D601ED91FC910190F081E02DC601099588
:10022000892B79F7C501DF91CF911F910F91FF9035
:10023000EF90DF90CF90BF90AF900895FC01538D69
:10024000448D252F30E0842F90E0821B930B5417B0
:1002500010F0CF96089501970895FC01918D828D3D
:10026000981761F0A28DAE0FBF2FB11D5D968C91D6
:10027000928D9F5F9F73928F90E008958FEF9FEF15
:100280000895FC01918D828D981731F0828DE80FD1
:10029000F11D858D90E008958FEF9FEF0895FC018B
:1002A000918D228D892F90E0805C9F4F821B910958
:1002B0008F739927089580EC92E00E944F0121E00E
:1002C000892B09F420E0822F089580E090E0892BAB
:1002D00029F00E945B0181110C9400000895FC013B
:1002E000A48DA80FB92FB11DA35ABF4F2C91848D97
:1002F00090E001968F739927848FA689B7892C93F4
:10030000A089B1898C91837080648C93938D848D46
:10031000981306C00288F389E02D80818F7D808349
:100320000895EF92FF920F931F93CF93DF93EC0109
:1003300081E0888F9B8D8C8D98131AC0E889F9898C
:10034000808185FF15C09FB7F894EE89FF8960838F
:10035000E889F98980818370806480839FBF81E010
:1003600090E0DF91CF911F910F91FF90EF90089552
:10037000F62E0B8D10E00F5F1F4F0F731127E02E2D
:100380008C8D8E110CC00FB607FCFACFE889F98965
:10039000808185FFF5CFCE010E946F01F1CFEB8DFB
:1003A000EC0FFD2FF11DE35AFF4FF0829FB7F89439
:1003B0000B8FEA89FB8980818062CFCFCF93DF9357
:1003C000EC01888D8823B9F0AA89BB89E889F9896D
:1003D0008C9185FD03C0808186FD0DC00FB607FCA2
:1003E000F7CF8C9185FFF2CF808185FFEDCFCE01D5
:1003F0000E946F01E9CFDF91CF910895833081F0A2
:1004000028F4813099F08230A9F008958730A9F05E
:100410008830C9F08430B1F4809180008F7D03C0B2
:10042000809180008F7780938000089584B58F77C6
:1004300084BD089584B58F7DFBCF8091B0008F7708
:100440008093B00008958091B0008F7DF9CFCF9355
:10045000DF93282F30E0F901E255FF4F8491F90135
:10046000E656FF4FD491F901EA57FF4FC491CC23D0
:10047000A1F081110E94FE01EC2FF0E0EE0FFF1FB2
:10048000E458FF4FA591B491EC91ED2381E090E009
:1004900009F480E0DF91CF91089580E090E0FACFF9
:1004A0001F93CF93DF93282F30E0F901E255FF4FE0
:1004B0008491F901E656FF4FD491F901EA57FF4FB5
:1004C000C491CC23A9F0162F81110E94FE01EC2FBC
:1004D000F0E0EE0FFF1FEE58FF4FA591B4918FB7DC
:1004E000F894EC91111108C0D095DE23DC938FBFF6
:1004F000DF91CF911F910895DE2BF8CFCF93DF933B
:1005000090E0FC01E656FF4F24918A579F4FFC0173
:1005100084918823D1F090E0880F991FFC01E8595D
:10052000FF4FA591B491FC01EE58FF4FC591D491B6
:1005300061110EC09FB7F8948C91E22FE0958E2345
:100540008C932881E223E8839FBFDF91CF910895A8
:100550008FB7F894EC91E22BEC938FBFF6CF3FB7B7
:10056000F89480915C0290915D02A0915E02B0913E
:100570005F0226B5A89B05C02F3F19F00196A11D6B
:10058000B11D3FBFBA2FA92F982F8827BC01CD01DD
:10059000620F711D811D911D42E0660F771F881F3C
:1005A000991F4A95D1F708958F929F92AF92BF926B
:1005B000CF92DF92EF92FF924B015C010E94AF025B
:1005C0006B017C010E94AF026C197D098E099F09A5
:1005D000683E734081059105A8F321E0821A9108D5
:1005E000A108B10888EEC80E83E0D81EE11CF11CFA
:1005F00081149104A104B10429F7FF90EF90DF90DA
:10060000CF90BF90AF909F908F90089521E001C050
:10061000220F6A95EAF7DC011C962C931C971A9618
:100620005C934E931997ED91FC910484F585E02D30
:1006300060E0099408950895DC01ED91FC91068431
:10064000F785E02D41E0099581E090E00895DC0117
:10065000ED91FC910684F785E02D40E009940F931D
:100660001F93CF93DF93CDB7DEB728970FB6F894DB
:10067000DEBF0FBECDBF009102011091030120919A
:100680000401309105010D831E832F83388700916B
:100690000601109107012091080130910901098399
:1006A0001A832B833C8390919803691710F06FEFA6
:1006B000690F262F30E0409199032C0F3D1FF9015F
:1006C000403199F4943089F46181680F606881E960
:1006D00093E028960FB6F894DEBF0FBECDBFDF9132
:1006E000CF911F910F910C9427036581EECF0F934B
:1006F0001F93CF93DF93EC01423018F08C81886018
:100700008C834F836887222329F0413019F48C8130
:1007100084608C8364E670E080E090E00E94D40204
:100720006C8164FD5CC0E881F9810684F785E02D69
:1007300042E063E0CE0109958BE496E40197F1F77E
:10074000E881F9810684F785E02D42E063E0CE017F
:10075000099503E512E0C8010197F1F7E881F981F5
:100760000684F785E02D42E063E0CE010995C801DB
:100770000197F1F7E881F9810684F785E02D42E0E1
:1007800062E0CE010995C8010197F1F76C816062C2
:10079000CE010E9427038BEE90E00197F1F784E0F1
:1007A0008D836CE0CE010E94270361E0CE010E94A0
:1007B00027038BE39FE10197F1F782E08E8366E0E8
:1007C000CE010E942703E881F9810484F585E02D9C
:1007D0006FEFCE01DF91CF911F910F91099460626D
:1007E000CE010E9427038BE496E40197F1F76C8118
:1007F0006062CE010E94270303E512E0C801019761
:10080000F1F76C816062CE010E942703BCCF08958E
:100810000895089520912E02260F3327331F213289
:100820003105ECF420919602FC0190E080E0243048
:1008300069F082E00895A0912E022191AC01425FFF
:100840005D4FA40FB52FB11D2C930196861798F319
:1008500080912E02680F60932E0280E0089581E05F
:1008600008951092960281E0809395021092700292
:1008700061E082E10E94500261E083E10E94500247
:10088000E9EBF0E080818E7F808380818D7F8083A3
:1008900088E48093B80085E48093BC000895CF93EA
:1008A000DF9391E090930D028823B9F0C091B800D6
:1008B000D091BA008091BC008A7B8093BC0060E03C
:1008C00082E10E94500260E083E10E9450020E9497
:1008D0003104D093BA00C093B800DF91CF9108954E
:1008E000CF92DF92EF92FF920F931F93CF93DF93FC
:1008F000D091BF0281E0D13208F09CC0C091BE020D
:100900000E94AF026B017C018091960281116CC044
:1009100082E08093960281E0809395028FEF80932E
:10092000940210929302D0939202AEE9B2E0E2E711
:10093000F2E080E0D8138DC01092710280917102B4
:10094000CC0FC82BC093710280917002813009F0E6
:1009500084C0109270020E94AF026B017C018091F2
:1009600071028093BB008091980290919902A091AE
:100970009A02B0919B02892B8A2B8B2BA1F00E94AB
:10098000AF02009198021091990220919A02309141
:100990009B026C197D098E099F0906171707280706
:1009A000390708F442C08091BC0083FDD8CF85ECA4
:1009B0008093BC000E94AF026B017C018091960283
:1009C000823009F44CC0809194028F3F09F469C0D1
:1009D00080919402803209F466C080919402803341
:1009E00009F463C084E026C0809198029091990236
:1009F000A0919A02B0919B02892B8A2B8B2B09F430
:100A000083CF0E94AF020091980210919902209129
:100A10009A0230919B026C197D098E099F09061775
:100A200017072807390708F06FCF809197020E94B7
:100A30004F0485E010929D021092BF0210929C021A
:100A4000DF91CF911F910F91FF90EF90DF90CF90AA
:100A500008959D9191938F5F6DCF85EEA9CF809181
:100A6000980290919902A0919A02B0919B02892BD1
:100A70008A2B8B2B09F4A2CF0E94AF02009198021F
:100A80001091990220919A0230919B026C197D0974
:100A90008E099F09061717072807390708F08ECF18
:100AA000C4CF80E0C7CF82E0C5CF83E0C3CF089535
:100AB000E091560280915502E81730F4F0E0E351DE
:100AC000FE4F808190E008958FEF9FEF0895909101
:100AD0005602809155022FEF3FEF981748F4E92F07
:100AE000F0E0E351FE4F208130E09F5F909356028B
:100AF000C90108958091550290915602891B990B66
:100B00000895CF92DF92EF92FF920F931F93CF93AE
:100B1000DF937C01CB018A0120919C02222389F082
:100B2000EB016B01C40ED51ECC15DD0569F0699192
:100B3000D701ED91FC910190F081E02DC70109955D
:100B4000F3CF642F0E940A04C801DF91CF911F9157
:100B50000F91FF90EF90DF90CF900895CF93DF93A8
:100B60001F92CDB7DEB7698320919C022223F9F052
:100B70002091BF02203258F021E030E0FC013383A5
:100B8000228390E080E00F90DF91CF9108958091D3
:100B90009D02E82FF0E0E256FD4F998190838F5F30
:100BA00080939D028093BF0281E090E0ECCF61E0F2
:100BB000CE0101960E940A04F7CFFC012381222373
:100BC000E1F08181682B6083828191E090939C02A7
:100BD0008093BE0210929D021092BF028DE593E0B9
:100BE0000E94AE050E947004282F30E081E090E062
:100BF000232B11F090E080E0089530E020E0F6CF64
:100C0000EF92FF920F931F93CF938C01FC0184E02E
:100C1000C0E0262F30E060FF02C09589C92BB901E2
:100C200075956795815031968111F3CF413011F45C
:100C3000F8014489F8016585C62BC42B7801FEE0D4
:100C4000EF0EF11CF80162896C2BC7010E94DD05D3
:100C5000F801628960956C23C701CF911F910F91B4
:100C6000FF90EF900C94DD050F931F93CF93DF93CC
:100C7000062F0F70423041F440E0602FDF91CF919A
:100C80001F910F910C940006142FEC0170E084E08A
:100C9000759567958A95E1F7CE010E940006412F70
:100CA000602FCE01EBCFFC0184858823A1F0218544
:100CB00032852115310521F4611107C0158606C062
:100CC00021303105D9F76111F9CF85876585CF01CD
:100CD0000E960C94DD050895EF92FF920F931F93EB
:100CE000CF93DF93EC01062FF42EE22E8B85888BB9
:100CF000109256021092550210929D021092BF025D
:100D00000E9431048AE193E090935402809353024D
:100D10008BE193E09093520280935102888911E015
:100D200010939C028093BE020E94700481111CC02B
:100D3000198B8DE593E00E9467058E87898988234A
:100D400039F01F861C8260E0CE010E960E94DD0500
:100D50002E2D4F2D602FCE01DF91CF911F910F913E
:100D6000FF90EF900C947703198AE8CF90E080E031
:100D7000089510926F0210926E0210926D021092FE
:100D80006C0210926B0210926A0210926902109229
:100D90006802109267021092660210926502109229
:100DA000640285E00E942702892B31F481E090E003
:100DB00090936F0280936E0286E00E942702892B37
:100DC00031F481E090E090936D0280936C0287E0B3
:100DD0000E942702892B31F481E090E090936B020E
:100DE00080936A0288E00E942702892B31F481E017
:100DF00090E0909369028093680289E00E94270244
:100E0000892B31F481E090E0909367028093660231
:100E10008AE00E942702892B31F481E090E09093D0
:100E200065028093640208958F929F92AF92BF9261
:100E30000F931F93CF93DF93CDB7DEB7A1970FB674
:100E4000F894DEBF0FBECDBF19A2423008F44AE0CD
:100E50008E010F5D1F4F842E912CB12CA12CA5016A
:100E600094010E946F0DE62FB901CA01EA3044F5E2
:100E7000E05DD801EE938D01232B242B252B79F7F0
:100E800090E080E0109769F0FD0101900020E9F703
:100E90003197AF014A1B5B0BBD0181E993E00E94D2
:100EA000F100A1960FB6F894DEBF0FBECDBFDF9163
:100EB000CF911F910F91BF90AF909F908F90089509
:100EC000E95CD7CFFC0101900020E9F73197AF0131
:100ED000481B590BBC0181E993E00C94F1000E947E
:100EE000B20D85ED8093BC0080919802909199029B
:100EF000A0919A02B0919B020796A11DB11D23E01B
:100F0000B695A795979587952A95D1F72091BC001E
:100F100024FD03C0109296020895409198025091CA
:100F2000990260919A0270919B02452B462B472BA8
:100F300069F30097A105B10541F02AE22A95F1F77E
:100F400000C00197A109B109E1CF809197020C94EB
:100F50004F041F920F920FB60F9211242F933F93BD
:100F60004F935F936F937F938F939F93AF93BF93B1
:100F7000EF93FF9380EC92E00E946F01FF91EF915D
:100F8000BF91AF919F918F917F916F915F914F91A1
:100F90003F912F910F900FBE0F901F9018951F92A9
:100FA0000F920FB60F9211242F938F939F93EF936D
:100FB000FF93E091D002F091D1028081E091D602BE
:100FC000F091D70282FD1BC090818091D9028F5F82
:100FD0008F732091DA02821741F0E091D902F0E09C
:100FE000E054FD4F958F8093D902FF91EF919F912F
:100FF0008F912F910F900FBE0F901F9018958081A9
:10100000F4CF1F920F920FB60F9211242F933F939C
:101010008F939F93AF93BF93809158029091590201
:10102000A0915A02B0915B023091570223E0230F46
:101030002D3758F50196A11DB11D209357028093BD
:10104000580290935902A0935A02B0935B02809188
:101050005C0290915D02A0915E02B0915F020196E8
:10106000A11DB11D80935C0290935D02A0935E026E
:10107000B0935F02BF91AF919F918F913F912F915C
:101080000F900FBE0F901F90189526E8230F029621
:10109000A11DB11DD2CF1F920F920FB60F92112436
:1010A0002F933F934F935F936F937F938F939F9370
:1010B000AF93BF93EF93FF938091B900887F803601
:1010C00009F44AC0F0F5883209F4A7C018F5803158
:1010D00009F49BC0B8F4882309F4F9C0883009F4F6
:1010E00094C0FF91EF91BF91AF919F918F917F91AC
:1010F0006F915F914F913F912F910F900FBE0F9085
:101100001F901895883109F488C0803251F7809378
:10111000940214C0803409F49DC040F48033B9F3C4
:101120008833F9F68093940285ECB0C0803509F4D9
:1011300085C0883509F496C0883499F60E947107F5
:10114000D0CF883909F48CC038F5883729F050F4AD
:10115000883611F0803729F683E08093960210924A
:10116000500257C0883809F47BC0803919F08038A4
:1011700009F0B7CF80915002803208F071C0E09141
:10118000500281E08E0F809350028091BB00F0E00E
:10119000E05DFD4F80833DC0803B39F0E0F4803A54
:1011A00009F479C0883A09F09CCF84E080939602D4
:1011B00010922F0210922E02E0915302F0915402ED
:1011C000099580912E0281110FC081E080932E023B
:1011D00010920E0209C0803C09F4A6CF883C09F4A5
:1011E000A3CF883B09F07DCFE0912F0281E08E0FE5
:1011F00080932F02F0E0E25FFD4F80818093BB007F
:1012000090912F0280912E0229C0809171028093CB
:10121000BB0085EC8093BC0064CF909193028091D9
:101220009202981758F5E091930281E08E0F809317
:101230009302F0E0EE58FD4F8081E9CFE0919302F8
:1012400081E08E0F809393028091BB00F0E0EE5816
:10125000FD4F808390919302809192029817C8F27B
:1012600085E8D8CFE091930281E08E0F80939302BE
:101270008091BB00F0E0EE58FD4F80838091950295
:1012800081115CCF81E08093700284EA8093BC007E
:101290001092960226CF85EC8093BC0010929602A5
:1012A00080915002803230F4E0915002F0E0E05D35
:1012B000FD4F10826091500270E0E0915102F09178
:1012C000520280E392E00995109250020ACF1092E8
:1012D000940234CF1F920F920FB60F9211242F93C6
:1012E0003F934F935F936F937F938F939F93AF93AE
:1012F000BF93CF93DF93EF93FF938091EC01C09165
:101300008D03D0E087FF24C01092850010928400E6
:101310008091EC018F5F8093EC018091EC01082EAD
:10132000000C990B8C179D0724F48091EC018C30F4
:10133000C4F18091840090918500049680349C498A
:1013400008F47AC08091840090918500049676C05C
:101350008091EC01082E000C990B8C179D07C4F6A8
:10136000E091EC018E2FEE0F990BFC01EE0FFF1FA9
:10137000E80FF91FE759FC4F808186FFC9CFE09144
:10138000EC018E2FEE0F990BFC01EE0FFF1FE80F03
:10139000F91FE759FC4F808160E08F730E94500273
:1013A000B7CF2091840030918500E091EC018E2F21
:1013B000EE0F990BFC01EE0FFF1FE80FF91FE75925
:1013C000FC4F81819281820F931F909389008093BB
:1013D0008800E091EC018E2FEE0F990BFC01EE0FCF
:1013E000FF1FE80FF91FE759FC4F808186FF11C0EE
:1013F000E091EC018E2FEE0F990BFC01EE0FFF1F19
:10140000E80FF91FE759FC4F808161E08F730E945C
:101410005002FF91EF91DF91CF91BF91AF919F91DA
:101420008F917F916F915F914F913F912F910F908D
:101430000FBE0F901F90189580E49CE9909389004F
:10144000809388008FEF8093EC01E3CFCF931092CD
:10145000C3021092C20288EE93E0A0E0B0E0809355
:10146000C4029093C502A093C602B093C7022EE0B7
:1014700031E03093C1022093C00225EC30E030937C
:10148000CD022093CC0224EC30E03093CF022093A5
:10149000CE0220EC30E03093D1022093D00221EC38
:1014A00030E03093D3022093D20222EC30E030932C
:1014B000D5022093D40226EC30E03093D70220935B
:1014C000D6021092D9021092DA021092DB02109228
:1014D000DC021092600310925F038093610390938B
:1014E0006203A0936303B093640380E291E090935E
:1014F0005E0380935D03109294031092930382E342
:1015000091E090939203809391031092A103CFEF07
:10151000C093A00310929F031092A20387E28093CE
:101520009C0310929D0310929E0310929B031092B5
:101530009A0384E08093A30382E08093A40381E074
:101540008093A50380E18093A60380E28093A703A4
:1015500080E48093A80380E88093A90350E040E0F2
:1015600063E081E993E00E94060380918D038C3053
:10157000A0F491E0980F90938D0380938E0390E0F8
:10158000FC01EE0FFF1FE80FF91FE759FC4F88EB36
:101590009BE092838183CF910895C0938E03FBCF0C
:1015A000789484B5826084BD84B5816084BD85B53E
:1015B000826085BD85B5816085BD80916E0081604A
:1015C00080936E00109281008091810082608093F0
:1015D00081008091810081608093810080918000F2
:1015E0008160809380008091B10084608093B1001D
:1015F0008091B00081608093B00080917A00846017
:1016000080937A0080917A00826080937A00809142
:101610007A00816080937A0080917A00806880935C
:101620007A001092C100E091D002F091D10282E0E4
:101630008083E091CC02F091CD021082E091CE0245
:10164000F091CF028FEC80831092D802E091D40207
:10165000F091D50286E08083E091D202F091D3022E
:10166000808180618083E091D202F091D3028081F9
:1016700088608083E091D202F091D30280818068FB
:101680008083E091D202F091D30280818F7D8083AC
:1016900060E085E00E947E0260E086E00E947E02BB
:1016A00060E087E00E947E0260E088E00E947E02A7
:1016B00060E089E00E947E0260E08AE00E947E0293
:1016C00060E082E00E947E0260E084E00E947E0290
:1016D00080918E038C3008F051C061E083E00E945D
:1016E0007E0280918E03282F30E0F901EE0FFF1F5C
:1016F000E20FF31FE759FC4F9081907C9360908339
:1017000010928F03109290032CE0622F0E94A00D84
:10171000829FB001112430E020E0AB01420F531F43
:10172000FA01EE0FFF1FE40FF51FE759FC4F908100
:1017300096FD16C02F5F3F4F2C30310571F7811198
:101740000FC01092800082E080938100109285008B
:1017500010928400B19A80916F00826080936F0034
:10176000E0918E038E2F90E0FC01EE0FFF1FE80F3B
:10177000F91FE759FC4F8081806480838AE590E0FF
:101780000E948C0020E044E064E181E993E00E9443
:101790006C0661E080E00E942F0382E491E00E94E9
:1017A000620762E080E00E942F0384E591E00E94DE
:1017B000620760ED77E080E090E00E94D40261E093
:1017C00081E993E00E9427038BE39FE10197F1F702
:1017D0000E94B90680916E0290916F0220916C0276
:1017E00030916D02820F931F20916A0230916B023B
:1017F000820F931F2091680230916902820F931F1C
:101800002091660230916702820F931F209164023B
:1018100030916502820F931F2091000130910101E8
:10182000281B390B309301012093000100E010E0E8
:10183000C1E0D0E00E94B90660E080E00E942F0382
:1018400089E691E00E946207C0900001D0900101FA
:101850000D2C000CEE08FF084AE0C701B601F7FEA8
:101860000DC06DE281E993E00E941C036627772793
:10187000CB016C197D098E099F094AE00E9414076B
:1018800084E691E00E94620761E080E00E942F03FD
:1018900080916E0290916F02019709F09FC086E7D8
:1018A00091E00E94620761E08AE00E942F0380912C
:1018B0006C0290916D02019709F093C087E891E066
:1018C0000E94620762E080E00E942F0380916A021A
:1018D00090916B02019709F087C088E991E00E941E
:1018E000620762E08AE00E942F0380916802909173
:1018F0006902019709F07BC089EA91E00E946207C2
:1019000063E080E00E942F0380916602909167025D
:10191000019709F06FC08AEB91E00E94620763E0D3
:101920008AE00E942F0380916402909165020197E2
:1019300009F063C08BEC91E00E94620782E00E9494
:101940002702892B19F58091620290916302892BFD
:10195000E9F4E0900001F09001011E141F040CF066
:101960004FC0D0936302C093620280916002909155
:101970006102892B59F484EB90E00E948C0081E095
:10198000E81AF108F0920101E092000184E00E945F
:1019900027022091620230916302892B09F43FC033
:1019A0002130310509F057C08091600290916102A9
:1019B000019709F050C068EE73E080E090E00E946B
:1019C000D4028AE590E00E948C001092630210928B
:1019D000620210926102109260023DC08FE791E0B6
:1019E00060CF80E991E06CCF81EA91E078CF82EB23
:1019F00091E084CF83EC91E090CF84ED91E09CCF97
:101A000060E080E00E942F038CED91E00E9462076D
:101A10006CED75E080E090E00E94D402B7CF809139
:101A2000600290916102892B09F0BACFD0936102D4
:101A3000C09360022115310509F0B2CF84EB90E02C
:101A40000E948C0080910001909101010196909379
:101A500001018093000161E070E080E090E00E946D
:101A6000D4020115110509F4E5CE0E945B0188231B
:101A700009F4E0CE0E940000DDCE052E97FB1EF497
:101A800000940E94540D57FD07D00E946F0D07FC73
:101A900003D04EF40C94540D5095409530952195FB
:101AA0003F4F4F4F5F4F089590958095709561958A
:101AB0007F4F8F4F9F4F08950E94910DA59F900DCE
:101AC000B49F900DA49F800D911D11240895B7FF20
:101AD0000C945C0D0E945C0D821B930B0895A1E297
:101AE0001A2EAA1BBB1BFD010DC0AA1FBB1FEE1F98
:101AF000FF1FA217B307E407F50720F0A21BB30BE3
:101B0000E40BF50B661F771F881F991F1A9469F75E
:101B100060957095809590959B01AC01BD01CF01BA
:101B20000895A29FB001B39FC001A39F700D811DB6
:101B30001124911DB29F700D811D1124911D0895D6
:101B4000991B79E004C0991F961708F0961B881F0F
:101B50007A95C9F780950895EE0FFF1F0590F491CF
:101B6000E02D099481E090E0F8940C94B70DF8947E
:021B7000FFCFA5
:101B72000600004014540040105000000000910183
:101B8200F1001E01DE014F012D01410100000000A4
:101B9200AE058105B60657057A05670558050000AA
:101BA20000001C03F100B60609046C060603530686
:101BB200340620202020434954205061726B696E04
:101BC2006720200020202020496E74656C6C6967B4
:101BD200656E74202020202000202020506C61633C
:101BE2006573203A200050313A46696C6C200050EF
:101BF200313A766964650050323A46696C6C20006D
:101C020050323A766964650050333A46696C6C200A
:101C12000050333A766964650050343A46696C6C18
:101C2200200050343A766964650050353A46696C52
:101C32006C200050353A766964650050363A466940
:101C42006C6C200050363A766964650020506172EF
:0C1C52006B696E6720506C65696E2000A5
:107E0000112484B714BE81FFF0D085E080938100F7
:107E100082E08093C00088E18093C10086E0809377
:107E2000C20080E18093C4008EE0C9D0259A86E02C
:107E300020E33CEF91E0309385002093840096BBD3
:107E4000B09BFECF1D9AA8958150A9F7CC24DD24C4
:107E500088248394B5E0AB2EA1E19A2EF3E0BF2EE7
:107E6000A2D0813461F49FD0082FAFD0023811F036
:107E7000013811F484E001C083E08DD089C08234E0
:107E800011F484E103C0853419F485E0A6D080C0E4
:107E9000853579F488D0E82EFF2485D0082F10E0AE
:107EA000102F00270E291F29000F111F8ED06801E7
:107EB0006FC0863521F484E090D080E0DECF843638
:107EC00009F040C070D06FD0082F6DD080E0C81688
:107ED00080E7D80618F4F601B7BEE895C0E0D1E017
:107EE00062D089930C17E1F7F0E0CF16F0E7DF06D8
:107EF00018F0F601B7BEE89568D007B600FCFDCFD4
:107F0000A601A0E0B1E02C9130E011968C91119780
:107F100090E0982F8827822B932B1296FA010C0160
:107F200087BEE89511244E5F5F4FF1E0A038BF0790
:107F300051F7F601A7BEE89507B600FCFDCF97BE46
:107F4000E89526C08437B1F42ED02DD0F82E2BD052
:107F50003CD0F601EF2C8F010F5F1F4F84911BD097
:107F6000EA94F801C1F70894C11CD11CFA94CF0C13
:107F7000D11C0EC0853739F428D08EE10CD085E9AC
:107F80000AD08FE07ACF813511F488E018D01DD067
:107F900080E101D065CF982F8091C00085FFFCCF94
:107FA0009093C60008958091C00087FFFCCF809118
:107FB000C00084FD01C0A8958091C6000895E0E648
:107FC000F0E098E1908380830895EDDF803219F02E
:107FD00088E0F5DFFFCF84E1DECF1F93182FE3DFCA
:107FE0001150E9F7F2DF1F91089580E0E8DFEE27F6
:047FF000FF270994CA
:027FFE00040479
:0400000300007E007B
:00000001FF
